:0300000002007784
:0C007700787FE4F6D8FD758109020003D3
:100057007E027D8EEFD394004015EDD39400400CC3
:0F006700EED3940040031E80F71D80EE1F80E54E
:010076002267
:10000300E4F508F5097F7FA809EF08800103D8FD0F
:10001300F5807F501200570509E50970020508D3E2
:100023009407E508940040DDE4F508F509D3E509F4
:100033009407E508940050C87FFEA809EF088001E3
:1000430023D8FDF5807F501200570509E50970DDBF
:04005300050880D943
:00000001FF
